:020000040800F2
:10000000C8080020A5300008C52E0008C72E00082B
:10001000C92E0008CB2E0008CD2E000800000000DD
:10002000000000000000000000000000CF2E0008CB
:10003000D12E000800000000D32E0008D52E0008A5
:10004000D1300008D5300008D9300008DD30000874
:10005000E1300008E5300008E9300008ED30000824
:10006000F1300008F5300008F9300008FD300008D4
:100070000131000805310008093100080D31000880
:100080001131000800000000153100081931000886
:100090001D310008213100082531000829310008F0
:1000A0002D310008313100083531000839310008A0
:1000B0003D31000841310008453100084931000850
:1000C0004D31000851310008553100085931000800
:1000D0005D3100086131000865310008D92E000843
:1000E000693100086D310008713100087531000870
:1000F000793100087D3100088131000800000000DE
:10010000000000008531000800000000893100086F
:100110008D31000800000000913100089531000881
:10012000993100089D310008A1310008A53100086F
:10013000A93100080000000000000000AD310008F7
:10014000B1310008B53100080000000000000000D7
:10015000000000000000000000000000000000009F
:10016000000000000000000000000000B93100089D
:10017000BD31000800000000000000000000000089
:1001800000000000C1310008000000000000000075
:10019000000000000000000000000000000000005F
:1001A0000000000000000000C5310008C93100084F
:1001B000CD310008D1310008D53100080000000021
:1001C00000000000D931000800000000000000001D
:1001D000DD310008E13100082DE9F14FB0B0924661
:1001E00004910DF142013A9A2B9199464A700020F0
:1001F0000AE01AF8011B0498309A904700280490EE
:1002000000F0A8860D98401C0D909AF8000050B19F
:100210002528EED1002100220791089209910A9227
:100220000B910C9204E00D9800F096BE41F0010194
:100230001AF8010F2028F9D023280CD02B2804D03D
:100240002D2805D0302809D00BE041F00201EFE75E
:1002500041F00401ECE741F00801E9E741F0100149
:10026000E6E72A280FD1D9F8002052F8040BC9F884
:10027000002000280F9003D540420F9041F0040168
:100280000AF1010A14E00F92DFF828380AE00F980B
:10029000984205DA00EB800402EB4402303A0F92F8
:1002A0000AF1010A9AF80020A2F130000A28EED3E0
:1002B0009AF800002E2803D04FF0FF320E9229E06A
:1002C0001AF8010F2A2809D1D9F8000050F8042B98
:1002D000C9F800000E920AF1010A1BE02D280CBF9C
:1002E0000AF1010A002000220E92DFF8C8470BE055
:1002F00040B90E9AA24205DA02EB820503EB4503F0
:10030000303B0E930AF1010A9AF80030A3F1300253
:100310000A2AEDD3ADF84010DFF89C07784400F5C9
:10032000F3609AF8001000F049FF08B11AF8010BC9
:100330008DF842009DF84200682805D19AF8000027
:1003400068280CD1622106E06C2804BF9AF80000EE
:100350006C2804D171218DF842100AF1010A12A80B
:1003600006901AF801BBBBF125012CD01C3900F016
:10037000D081091F022940F2CC81133900F0158584
:10038000093900F0C681891E00F0AA85491E00F0D7
:100390005785491E022940F2BC81091F00F0508593
:1003A000491F00F02881491E00F0FF84491E00F01B
:1003B000D080C91E0DD0891E00F0F784C91E00F040
:1003C000F48400F098BD25238DF84830012100F019
:1003D0009DBDD9F8000050F8044BC9F80000002C6E
:1003E000059440F0A3802B994878002800F099806C
:1003F0004FF0FF340FF6683000F002FF201A40F093
:10040000A98500F084BD6D1E40F09B853096079D48
:1004100012AF75B1309E17F8012B02A9304600F0DB
:1004200065FE002801D46D1EF5D10028309640F0FD
:1004300091850A9D3020002D8DF804000CDD309E42
:10044000012301AA02A9304600F060FE002840F016
:1004500081856D1EF4D13096059F089D75B1309E43
:1004600017F8012B02A9304600F040FE002801D405
:100470006D1EF5D10028309640F06C850B9D302024
:10048000002D8DF804000CDD309E012301AA02A985
:10049000304600F03BFE002840F05C856D1EF4D134
:1004A000309605980899099D471875B1309E17F840
:1004B000012B02A9304600F019FE002801D46D1E60
:1004C000F5D10028309640F045850C9D3020002D58
:1004D0008DF804000CDD309E012301AA02A93046EC
:1004E00000F014FE002840F035856D1EF4D13096E2
:1004F0009DF8400041077FF588AE2020002C8DF844
:1005000004007FF782AE309D012301AA02A928468C
:1005100000F0FCFD002840F01D85641EF4D13095EC
:1005200073E60FF64840059000F0F1BC0E9D002DDB
:1005300004D5204600F084FE044607E02A46204603
:1005400000F088FE002814BF041B2C46089400F01D
:10055000DEBCD9F8001051F8040BC9F8001020F0E7
:100560000004002121F0FF3512ABCDE902450593CF
:10057000DDE9022306993C2413B90AB90E9898B113
:1005800002F00F053035641EEEB23A2EA8BF2735B3
:10059000120942EA03721B090D5508BF002A03D055
:1005A00005980D19A842EBD308190590C4F13C0237
:1005B0000E98089282420ADABDF84010821A4FF66D
:1005C000EF7001400A92ADF8401000F0A0BC002886
:1005D00040F19D849DF8400000F01400102840F088
:1005E00096840F9B07990A985B1A1B1A9A1A002A7D
:1005F00040F38D84D7E32B99487820B14FF0FF3436
:100600000FF63830F8E69DF84200622861D068287D
:1006100017D06A283FD06C2806D0712847D074289C
:100620002CD07A281DD064E0D9F8001051F8040BC2
:10063000C9F80010002868D14FF0FF340FF61430CD
:10064000DAE6D9F8001051F8040BC9F8001020B907
:100650004FF0FF340FF6FC20CEE60D99018000F03C
:1006600056BCD9F8001051F8040BC9F80010002846
:100670004BD14FF0FF340FF6DC20BDE6D9F8001067
:1006800051F8040BC9F8001000283ED14FF0FF3498
:100690000FF6C020B0E6D9F8001051F8040BC9F8E5
:1006A000001080B94FF0FF340FF6A820A4E6D9F867
:1006B000001051F8040BC9F8001020B94FF0FF34B6
:1006C0000FF6902098E60D9AD317C0E9002300F0AA
:1006D0001EBCD9F8001051F8040BC9F8001020B95D
:1006E0004FF0FF340FF66C2086E60D99017000F094
:1006F0000EBCD9F8001051F8040BC9F8001020B94D
:100700004FF0FF340FF64C2076E60D99016000F0B3
:10071000FEBBD9F80020D21D22F00702C9F8002044
:10072000D2E900010832C9F80020CDE90201C80F62
:1007300002D007982D210AE0BDF84000810702D5BC
:1007400007982B2103E0C00705D50798202112AA9E
:100750001154401C0790DDE90223079912A8CDE946
:100760002C2308444BF020016129059021AC0BD0CB
:100770000E99002902D506210E9105E001BF4BF02C
:100780002001672901220E92DDE902235900491553
:10079000491C0DD11A030BD0ABF1610503211A2DB1
:1007A000089102D20FF6C81110E00FF6C8110DE043
:1007B00059004915491C0DD11A030BD1ABF1610544
:1007C00003211A2D089119D30FF6B011032200F05E
:1007D0006DFD9CE3DDE90201CDE92E01DDE92E236B
:1007E00023F00047B7F5801F22F000060DD200224B
:1007F000002F08BF002E009203D116E00FF67811EB
:10080000E4E76A4600F0A6FD0FE0DFF8C008DFF875
:10081000C01800EB17500090DDE92E234FF0FF3099
:100820001940DFF8B07810403943CDE902014BF0B0
:10083000200061280DD1059830210170821CBBF188
:10084000610F05920CBF7821582141700798801CD8
:100850000790DDE9020120F0000231F0004308BFFB
:10086000002A02D10026002568E14BF02008B8F1EB
:10087000610F40F0B4800E98002847BF21210191FC
:10088000401C0190019FDDE92C017F1C0022002308
:10089000DDE9024500F096FD00998DF8842038BF0F
:1008A00085F00045091F002F00910DF1850653DDED
:1008B000204629460022002300F09CFD4CD248002F
:1008C000400D00F11C0212D0002A10DD40F2FF732F
:1008D0009A4206DBDFF8001805F0004001430020D3
:1008E00011E06FF31E5141EA025120460BE024F063
:1008F000000035F0004108BF00280FBF29461C2228
:10090000294600F08FFD04460D4600F029FEFF1F2A
:10091000002F804609DD00F041FE02460B462046CE
:10092000294600F04DFE04460D46F01D0721B8F1A2
:10093000000F0CDD491E5EBF08F00F0200F8012D0C
:100940004FEA2818F3D502E0002200F8012D491ED5
:10095000FAD5C61D002FABDC0DF18500361A0198C3
:100960008642D8BF304600280DF1850430D4B0420D
:1009700006DA0DF185010A5C082AA8BF0F2100DA0A
:100980000021024621AB134400E0401E13F8015938
:10099000521E8D42F9D00F2904D10DF185018B5CD7
:1009A0005B1C8B54002A04D50099091D21AC401C06
:1009B0000091411E0CD46218ABF13A061378303323
:1009C000DDB23A2DA8BFF318491E02F80139F5D55A
:1009D0000E99002940F1B080421E0E92ACE00099C1
:1009E000DFF8F82647F29750414391FBF2F2DDE938
:1009F0002C45009225F00045D2F1070204DD204687
:100A0000294600F040FB0BE052420020DFF8D016F0
:100A100000F039FB02460B462046294600F042FE14
:100A20000446B8F1660F0E9806BF009F0A370627E6
:100A30003F18142FC8BF142730200D468DF88400AE
:100A40000DF18506002F39DD2046294600F04EFFC6
:100A500001460A4606F1080304200A26B2FBF6F610
:100A600006EB860EA2EB4E02303203F8012C0A226E
:100A7000B6FBF2F202EB820EA6EB4E063036401EBB
:100A800003F8026DE9D1083F002F03F10806D9DD14
:100A9000084600F03FFF02460B462046294600F07C
:100AA0008FFD0022DFF83C3600F042FF04460D4681
:100AB000CAE700BFCBCCCC0C102600000DF185009E
:100AC000361A0DF1850404E00098401E761E009051
:100AD000641C20783028F7D0B8F1660F02D1009955
:100AE000491C04E0B8F1650F0CBF012100210E98EC
:100AF00008188642B8BF701E00281DD4B04204DA20
:100B0000215C3429C8BF392100DC30210246631E34
:100B10009D1800E0401E15F80169521E8E42F9D062
:100B2000392902D1A15C491CA154002A04D500999D
:100B3000491C1C46401C00910646009D0E9F30B289
:100B4000002802DC01260FF238644BF020006628F2
:100B500008BF6D1C15D067280FFA85F841D118F130
:100B6000040F44DBB84542DA9DF840006D1C0107D4
:100B700003D430B2B842B8BF074628B23F1A48BFC4
:100B800000270FFA85F8B8F1000F00F3AF8008983E
:100B9000411C0891302205990A54002F03DC9DF86E
:100BA0004000010705D50898411C08912E2205999F
:100BB0000A5417EB080FB8BF7D4228B2C51932B2EC
:100BC000414295420B91B8BF2E46059B089836B21C
:100BD000099632462146184400F068FBAD1B0C957F
:100BE000CCE0BBF1610F15D14FF0700B17E030B2C4
:100BF000B84204DA9DF840100A0758BF07467F1E26
:100C000048BF0027BBF1670F14BF4FF0450B4FF0F3
:100C1000650B04E0BBF1410F08BF4FF0500B089883
:100C2000411C0891002F059914F8012B0A5403DC8C
:100C30009DF84000010719D50898411C08912E2203
:100C400005990A54002F11DD761E30B287420598AF
:100C5000089BB8BF3E4632B22146184400F026FB3E
:100C6000089836B23018BF1B08900B970598089962
:100C70000844B8F1000F80F800B003D42B22427072
:100C8000821C04E02D2145464170821C6D420021EA
:100C90002CAB28460AE004460A2094FBF0F000EB57
:100CA0008005A4EB450403F8014B491C00B2002861
:100CB000F1DC012906DC4BF02000652804BF302060
:100CC00002F8010B00292CAB08D1302002F8010BEF
:100CD00006E0491E585C303002F8010B0029F8DCB0
:100CE000059908980844121A099247E030B229B2CF
:100CF00088421BDA0598089B32B22146184400F05E
:100D0000D5FA089936B27118A8EB0606002F08919B
:100D10000B9603DC9DF84000020705D5059A2E20AE
:100D200050540999491C09910C9727E00598089B94
:100D30002AB22146184400F0B9FA0898761B4044BC
:100D4000002F089003DC9DF840100A0704D5411CD1
:100D500008912E2205990A5430B287420598089BC3
:100D6000B8BF3E4632B204EB0801184400F09EFAC8
:100D7000089836B23018BE1B08900B969DF84000BC
:100D800000F01400102840F0C280079A08990B98D0
:100D90008A18099982180C988A1882180F9882422A
:100DA00080F2B580821A0A92B1E09DF84200622872
:100DB00008D068280ED06A2814D06C281FD071285B
:100DC00010D01CE0D9F8001051F8040BC9F800103D
:100DD000C0B21AE0D9F8001051F8040BC9F800109D
:100DE00080B212E0D9F80020D21D22F00702C9F823
:100DF0000020D2E900010832C9F8002006E0D9F845
:100E0000001051F8040BC9F800100021CDE90201CF
:100E10009DF8400001075AD5DDE90223002B08BFE9
:100E2000002A54D04BF02000782850D1079812A9FE
:100E300030220A54401C431C079301F800B046E0DE
:100E40009DF84200622808D068280ED06A2814D085
:100E50006C281FD0712810D01CE0D9F8001051F870
:100E6000040BC9F8001040B21AE0D9F8001051F88C
:100E7000040BC9F8001000B212E0D9F80020D21D0E
:100E800022F00702C9F80020D2E900010832C9F8AF
:100E9000002006E0D9F8001051F8040BC9F8001042
:100EA000C117CDE90201002902D507982D210AE0DA
:100EB000BDF84000810702D507982B2103E0C00749
:100EC00005D50798202112AA1154401C079012A89A
:100ED00007990144059102A8594600F04FF816E021
:100EE00001200790D9F8000050F8041BC9F8000051
:100EF0008DF848100BE025210122BBF1000F8DF881
:100F00004810079203D08DF849B0022107910F9A3B
:100F100007980A990C9C121A0898521A0B99121ADF
:100F20000998521A121A9DF84000141B41073FF508
:100F30006EAA2020002C8DF804007FF768AA309E4E
:100F40002546012301AA02A9304600F0DFF8002857
:100F50003FF459AA4FF0FF3031B0BDE8F08F0000E8
:100F60007072696E74665F733A20626164202573E3
:100F700020617267756D656E740000002DE9FC4399
:100F800007466F293E6908BF082405D041F02000BC
:100F9000782814BF0A2410243C25D7E900236429AB
:100FA00018BF69299046994605D1002B03D5D8F181
:100FB000000869EB4909B9F1000F08BFB8F1000F4B
:100FC0000CD1386B50B9082C39D197F8380001078B
:100FD00035D530203B2586F83B0030E08DF80010F9
:100FE000404649462246E31700F074FD3032D0B245
:100FF0006D1E3A28019504DB9DF80000A0F1510117
:101000008A187255404649462246E31700F062FDB1
:1010100080465FEA010908BFB8F1000F03D0F86805
:1010200071198842DCD3082C09D197F838000107E0
:1010300005D5705D302802D06D1E30207055C5F189
:101040003C02BA617119F960386B824208DA821A7F
:101050003A624FF6EF70398F01403987BDE8F3836C
:1010600000280ED597F8380000F01400102808D199
:101070007B6B7969386A5B1A1B1A9A1A002AC8BFF7
:101080003A62BDE8F3832DE9D04306460F46144685
:101090004FF00008DFF8509012E0E00707D5424615
:1010A0004B463046394600F043FC06460F46404664
:1010B000494642464B4600F03BFC64108046894658
:1010C000002CEAD130463946BDE8D08302FCFFFF50
:1010D000FFFF0F800000E03F0000F07FA0860100CE
:1010E0000000F03F84D797410000244010B503462C
:1010F0000C461146A0689847A06020B1E06A401CE9
:10110000E062002010BD4FF0FF3010BDF8B505467D
:101110000E4617461C4600205CB117F8011BB0684C
:10112000A847B06030B1F06A401CF0620020641E35
:10113000F3D1F2BD4FF0FF30F2BD00007072696E66
:1011400074665F733A20256E20646973616C6C6FFE
:10115000776564007072696E74663A20626164201B
:10116000256E20617267756D656E74000000000069
:101170006E616E004E414E00696E6600494E46003B
:10118000300030B4002513E050F8042BD30744BFDF
:10119000A9F101039A18091F042942F8045BFAD245
:1011A00013468C0744BF15809B1CC90748BF1D70A0
:1011B00050F8041B0029E7D130BC7047C9B202784F
:1011C0008A421AB11CBF10F8012FF9E718BF00209E
:1011D000704730B40EE00268436802440830DC0710
:1011E00044BFA9F10104E31852F8045B43F8045B1F
:1011F000091FF9D150F8041B0029ECD130BC70470D
:1012000080B500B906A005490B681BB12222002158
:10121000984701E000F076FD222002BDC0000020CA
:10122000636F6E73747261696E742068616E646C52
:1012300065723A20626164206D6573736167650051
:1012400000F1010310F8011B11B110F8011BFBE7BD
:10125000C01A7047C9B2830706D0521E22D310F8B5
:10126000013B9942F7D11FE0083A13D302F104027F
:1012700041EA012141EA014150F8043B121F21BF1C
:101280004B40A3F1013C2CEA030C1CF0803FF3D04F
:10129000C9B2001F083210F8013B521E28BF91EA64
:1012A000030FF8D818BF0120401E704762B38B07A8
:1012B00008D0521E11F8013B00F8013B00F02480D9
:1012C0008B07F6D1830740F0208000BF103A07D388
:1012D00030B4B1E83810103AA0E83810F9D230BC78
:1012E000530724BFB1E80810A0E8081044BF51F824
:1012F000043B40F8043BD20724BF31F8022B20F80E
:10130000022B44BF0B7803707047121F17D35B008A
:1013100009D151F8043B20F8023B1B0C121F20F8A6
:10132000023BF6D20BE051F8043B00F8013B1B0AEC
:1013300020F8023B1B0C121F00F8013BF3D238BF10
:10134000121D521E24BF11F8013B00F8013BF8D8D2
:101350007047000010B5144600F002F8226010BD7E
:10136000C1F30A5343B14A0012F5001F28D2A3F279
:10137000FE32A1EB0251704750EA410C20D001F03F
:10138000004C31EA0C01B1FA81F204BFB0FA80F3EB
:10139000D2180B3AB2F120032CBF00FA03F19140AE
:1013A00041EA0C013EBFC2F1200C20FA0CF31943B4
:1013B0009040524240F2FD33D21A01EB0351704784
:1013C000002270474FF4001C1CEB410F94BF1CEB34
:1013D000430F09E041EA030C50EA4C0C52EA0C0CB2
:1013E00003D2994208BF9042704714BF8B42824299
:1013F000704700004FF4001C1CEB410F94BF1CEB26
:10140000430F09E041EA030C50EA4C0C52EA0C0C81
:1014100003D28B4208BF8242704714BF9942904268
:1014200070470000124254D440F2FF7C1CEA115372
:101430000FD0634531D09B1863453CBF01EB02518F
:10144000704701F0004141EA0C510020AFF30080E9
:10145000704750EA410320D001F0004C91EA0C01A2
:101460001CD0B1FA81F30B3B9A420DD9D21A9940A4
:1014700051EA0C01C3F1200C20FA0CFC61449840A5
:10148000531C40F2FF7CD7E7914041EA0C01C2F1C6
:10149000200C20FA0CF3194390407047B0FA80F307
:1014A0001533202BE0D3202AEED3203A203B9A425A
:1014B00009D9D21A00FA03F141EA0C010020531CA9
:1014C00040F2FF7CB8E700FA02F141EA0C0100208B
:1014D0007047524240F2FF7C1CEA11530DD0634525
:1014E000DBD0B2EB030C3CBFA1EB025170470CF117
:1014F000010221EA035141F4801150EA410CCCD0A1
:1015000001F0004C352A27DC30B481EA0C01B2F13D
:10151000200309DAC2F12003044601FA03F5D040A2
:101520002843D1409C400CE0C3F12002450020FA42
:1015300003F418BF44F0010421FA03F091400C4376
:10154000002174F1004550F1000051EB0C012442E0
:1015500030BC7FF47BAF70476146002076E7000027
:10156000C1F30A5340F2FE329B1A14DDD3F120037B
:101570004FEAE17208DDC90241EA505141F00040F2
:10158000D84080185040704703F2E13010B1D24388
:1015900082F000407047002070470000C11768B11A
:1015A0004840401AB0FA80F29040D21CC907C2F5F8
:1015B000846241EA025202EBD021400570470000EC
:1015C00070B44FF0004591EA030F40F19F836B40E8
:1015D000841A71EB030603D2001BB1411219734147
:1015E0004FF4001C1CEB410F34BF7CEB430442E082
:1015F0000C0DA4EB1356352E4FDC45EAC323DB0A52
:1016000045EAC121C912B6F120050DDD63FA05F6E0
:10161000EB4086EA0305124218BF45F00105C018E9
:1016200051F100010CD213E062FA06F5F240554088
:10163000F3415A40B340F3405A408018594107D310
:1016400049085FEA30005FEA350528BF45F001052B
:1016500001F58011420875F1004250F1000041EBA4
:1016600004514E0016F5001F70BC38BF70470020B3
:10167000090D090570471CEB410F10D252EA4306D1
:101680000BD0BCEB410F05D80C0DAB43661E342EBE
:10169000B6DD02E0AB438018594170BC704770BCA6
:1016A00070470000F0B540F2FF7581EA030C0CF0C2
:1016B000004C15EA11541DBF15EA1357AC42AF4256
:1016C000E5E0BC41C1F31301C3F31303801A994150
:1016D00043F4801304D2641E4000494180185941EC
:1016E000C90241EA5051B1FBF3F603FB1611A2FB0C
:1016F0000675D7EBC020A94102D2761E8018594149
:10170000C90241EA5051B1FBF3FE03FB1E11A2FBDB
:101710000E75D7EBC020A94103D2AEF1010E80189F
:101720005941890241EA9051760546EA8E2EB1FB75
:10173000F3F603FB1611A2FB0675D7EB8020A94137
:1017400002D2761E80185941C90241EA50514EEA30
:10175000060EB1FBF3F603FB1611A2FB0675D7EBE1
:10176000C020A94102D2761E80185941C90241EA1F
:101770005051B1FBF3F703FB1711A2FB0735D3EB75
:10178000C020A94167F100070CBF004247F00107E4
:1017900066F3D5274FEA1E31B80814F5806412DDD0
:1017A000BD0775F1004250EB0E5051EB045111F59D
:1017B000801F5CBF41EA0C01F0BD4CF07F6141F03D
:1017C000E0410020F0BDBD076D0840EA0E5041F435
:1017D0008011D4F10104B4F120060ADAC4F1200624
:1017E0000200E04001FA06F3E1401843B24015431D
:1017F0000EE0342C13DCC6F1200445EA40056D08E8
:1018000020FA06F2154321FA06F0A1400D4300210B
:1018100075F1004250F1000051EB0C01F0BD0020C9
:101820005FEA0C01F0BDCFB992185B41B3FA83F7C0
:1018300004BFB2FA82F6BF190B3FB7F120062FBFE3
:1018400002FA06F3BB40C7F1200622FA06F638BFBB
:101850003343BA401CB1E419641E33E77F4231F0D0
:101860000041B1FA81F404BFB0FA80F6A4190B3C30
:10187000B4F120062FBF00FA06F1A140C4F1200602
:1018800020FA06F638BF3143A0403C1B1AE7AC42B1
:101890001ABF05EA1357AF4212E050EA41061CBFD7
:1018A00052EA4306BFE750EA4107304661461CBF93
:1018B00041EA0551F0BD52EA430C08BFC143F0BDF7
:1018C00000204FF4001616EB410F98BF16EB430FA4
:1018D00008BF16EB410F24BFC14305E016EB430FD1
:1018E0000CBF61464CEA0551F0BD0000400D49189F
:1018F00040EA81200CD2490DA1F58061491C40F0DD
:10190000004005DBD1F11F0154BFC840C01770472C
:1019100000207047014648B1B0FA80F18840C91CE8
:10192000C1F58461090501EBD02140057047000035
:10193000B0B581EA030C0CF0004C40F2FF7515EADB
:1019400011541DBF15EA1357AC42AF4239E0E419F8
:1019500023EA455343F48013C90241F0004141EAB0
:10196000505EC7021100A7FB020200284FF00000E2
:10197000EEFB01204FF00001E3FB072118BF42F00E
:101980000102401800214941E3FB0E01A4F58064E7
:101990000F0302D252004041494154F101046CDD71
:1019A000470872F1004250F1000051EB0451A1F5DB
:1019B00080115CBF41EA0C01B0BD4CEA055100202A
:1019C000B0BD05EA1357AC4214BFAF4241E050EA44
:1019D000410E1CBF52EA430E02E061460020B0BD3A
:1019E00024423C441BD15FEA070EF6D0090302BF34
:1019F00001460020AEF1140EB1FA81F7AEEB0704F8
:101A000001FA07FE0C37C7F1200100FA07F7C840BA
:101A10004EEA000E23EA455343F48013A2E733F065
:101A20000043B3FA83F704BFB2FA82FE77440B3F58
:101A3000E41BB7F1200E2FBF02FA0EF3BB40C7F133
:101A4000200E22FA0EFE38BF43EA0E03BA40641C91
:101A500082E750EA410E14BF52EA430E6FF00001D4
:101A60004FF4001717EB430F8ABF194617EB410FCE
:101A7000B5E74CEA05510020B0BDD4F10104B4F142
:101A800020070FDAC4F12007520828BF42F00102F4
:101A900010FA07F501FA07F7E1BF2A43E04038439F
:101AA000E1400FE0352C98DCC7F1200452EA4002F7
:101AB00020FA07F218BF42F0010231FA07F0A14004
:101AC0000A43002172F1004250F1000051EB0C0179
:101AD000B0BD0000BBBBE1B1B2F5803F80F07E80BD
:101AE000022A1ED98C46B1FBF2F102FB11C31B0482
:101AF00043EA1043B3FBF2FC02FB1C3380B240EA22
:101B00000343B3FBF2F002FB103240EA0C40002327
:101B10007047022A05D98446B0FBF2F002FB10C2DE
:101B200070474AB105D100F0010249085FEA300070
:101B3000704700220023704700F09EB90B0002009E
:101B4000002100207047904271EB030CF6D3B3F5EF
:101B5000803F2FD2F0B5B3FA83F7B1FA81F4A7F141
:101B60000F0E3D1B5340CEF1200602FA0EF2F34158
:101B70005340B5F10F0746D80F3C2C444140C4F107
:101B80002006A040F1414140B1FBF3F603FB1611E2
:101B9000A2FB0645001BA94102D2761E80185941BE
:101BA00080EA010221FA0EF362FA0EF200215A4095
:101BB0003046F0BD30B4B1FBF3FC03FB1C11A2FBBB
:101BC0000C45001BA94103D2ACF1010C801859410E
:101BD00030BC02460B46604600217047B2F1807F60
:101BE00065D3F0B5B2FA82F7B1FA81F4C7F10F0606
:101BF0003D1B22FA06F307F1110EF24120355A403F
:101C0000B5F10F07B8D94140C4F12006A040F14119
:101C10004140B1FBF3FC03FB1C11A2FB0C45001B74
:101C2000A94103D2BCF1010C801859410F2F12D3E6
:101C30000F3FC90341EA5041B1FBF3F603FB161114
:101C4000A2FB0645D4EBC030A94102D2761E801813
:101C5000594146EACC3C07B34140C7F12006B840A1
:101C6000F1414140B1FBF3F603FB1611A2FB06451F
:101C7000001BA94102D2761E8018594180EA010258
:101C800021FA0EF3C7F1200462FA0EF20CFA07F003
:101C90005A402CFA04F13043F0BD80EA010221FAE7
:101CA0000EF3002162FA0EF260465A40F0BD8C46F7
:101CB000B1FBF2F102FB11C31B0243EA1063B3FB59
:101CC000F2FC02FB1C331B024CEA002043EA1063C7
:101CD000B3FBF2FC02FB1C331B024CEA002043EA7C
:101CE0001063B3FBF2FC02FB1C331B024CEA002026
:101CF00043EA1063B3FBF2FC02FB1C324CEA002007
:101D000000237047012000F0B9B80000841A71EB7D
:101D1000030604D26E40001BB141121973414FF407
:101D2000001C1CEB410F34BF7CEB430683E00C0D21
:101D3000A4EB1356362E00F37C80012E45EAC32314
:101D400041DC43EA525312BFD20292025B082405DF
:101D500045EAC12141EA5051D2EBC020994125D436
:101D600007D1B0FA80F610FA06F162D000202036D2
:101D700008E0B1FA81F6B140C6F1200220FA02F281
:101D80001143B0404FEAF474B4EB465434F001060A
:101D90004FEA74040AD8D6F50016760D04F0004414
:101DA000F04061FA06F25040F1404840C00A40EA73
:101DB000415021F0004128BF5FEA500550F100007A
:101DC00044EBD12135E0DB0A45EAC121C90AB6F16D
:101DD00020050EDD42EA0242120CC5F1200603FA8C
:101DE00006F6EB4042EA06056D42984161F10001BA
:101DF0000DE062FA06F5F240554063FA06FC82EA0D
:101E00000C02F3405A406D42904161EB030111F422
:101E1000801F05D1641E620502D06D00404149411A
:101E200021F48011430875F1004350F1000041EBAB
:101E3000045170BC70471CEB410F15D223F00043D6
:101E400052EA43060BD04FEA4C0CBCEB410F04D8CE
:101E50000C0D661E342EB7DDEBE7801A994150EA6F
:101E6000410608BF0021E4E708BF1CEB430F28BF71
:101E70006FF00001DDE700007047000080B500F062
:101E800007F8024A11001820ABBEFBE7260002004B
:101E900010B500F052F802000023DB430024106864
:101EA000984203D011000220ABBE146050689842E3
:101EB00003D0111D0220ABBE546010BDF0B583B03D
:101EC000040000F03AF8A10047183D680026F643E8
:101ED000B54216D100F01AF83D68B5420FD100BFE7
:101EE00009A00090002C01D1002000E00420019006
:101EF0000320029069460120ABBE05003D6000F062
:101F000014F8280003B0F0BD3A7474000C480121A5
:101F1000BFF35F8FD0E84F3FC0E8421F002AF9D1DE
:101F2000BFF35F8F002BF3D170470548BFF35F8F7E
:101F300000210170BFF35F8F7047024870470000B7
:101F4000C40000200C000020B84981B00A68024398
:101F50000A60096808400090009801B070470000CE
:101F600030B58FB000F0A2F900F0F6F800F0D7F825
:101F70000220FFF7E9FF0120FFF7E6FFAC4C02204B
:101F8000A0621021A1628020A062022100910122A2
:101F9000002102910391049101926946204600F0CC
:101FA00095F9102000F0C0F8802000F0BDF8A1489D
:101FB000A149016000220121416181614260022149
:101FC000C161016282600121C26002828274416249
:101FD0008162C162016342638263C26300F008FAF6
:101FE00008B172B6FEE72022002107A800F0FDFA32
:101FF00000F095F89148016841F480210160802546
:10200000006800F48020069006980220FFF79CFFED
:102010004FF4806100F093F84FF4006100F08FF806
:102020008748884B0168884900221A700D60079222
:102030000A9200214FF4E13309910B910C220D918A
:102040000E9108930C9207A9804D284600F0D8FA0B
:10205000A86820F06040A860A86820F06060A860D0
:10206000296821F000512960686820F49040686078
:10207000A86820F02A00A860296841F001012960C1
:10208000E8698002FCD5E8694002F9D50220296898
:1020900041F020012960A061642000F021FB0220B2
:1020A000A0624FF4617000F01BFB0220A06140F6BB
:1020B000B8344FF47A6000F013FB00F099F800F0A8
:1020C0002AF800F095F800F026F800F091F800F0FA
:1020D00022F800F08DF800F01EF800BF6DA05C4DF6
:1020E00000F012FB6DA000F08DF85A4800F044FBA0
:1020F0005FA000F087F84FF4FA7000F0F1FA28467C
:1021000000F080F8204600F0EBFA05F1440000F002
:1021100079F82046F1E74FF47A7000F0E1BA18221E
:102120000021684600F061BA01210090019100226F
:102130000292039204926946204600F0C7B80091CB
:10214000022201920021029103910491072205923B
:102150006946204600F0BAB880B53F4801680909D1
:1021600009010160016811F00F0FFBD13B480168C4
:1021700021F4C06141F4007101603948016841F403
:102180008071016001684905FCD5426822F0FE4279
:1021900042F08042426081688908890041F0010173
:1021A0008160816801F00C010429FAD1816821F075
:1021B000F0018160816821F4E0618160816821F42F
:1021C00060518160274800F0F7FA0F2000F0FAFA1A
:1021D00008B172B6FEE72448016821F0407141F071
:1021E00000710160026822F03002026001BD00004F
:1021F00080B500BF0FF28C0000F086FABDE8024007
:1022000022A0FFE7F8B504460025184E05E0306827
:102210004006FCD5E15DF1606D1C2046FFF710F82B
:10222000EFB28742F3DBF1BD000000004C1002402A
:1022300000040048180000200064004058100240CC
:102240000CED00E027E400E004E100E0004800407D
:102250003C2E00087C00002000200240007000405E
:10226000001002400024F400881002401C48004086
:1022700041542B514254414350543D312C320D0AAC
:1022800000000000696E2041540A000041540D0A0C
:1022900000000000696E205057520A0041542B5133
:1022A00042545057523D310D0A000000032010B532
:1022B00000F0B7FA0F2000F085FA0024002814BFC0
:1022C000012400F0F7FA204610BD0000F0B50B46DF
:1022D0000246186890FAA0F0B0FA80F60F240325A1
:1022E00072E04FEA102C9CFAACFEBEFA8EFE9CFA0D
:1022F000ACFC576A4FEA8E0EBCFA8CFC04FA0EFE58
:102300004FEA8C0C27EA0E0701FA0CF139435162AF
:1023100045E00121B140084055D05968012918BF56
:10232000022914D19968976890FAA0FC00F052F83D
:102330004FEA4C0E01FA0EF1394391601968576863
:10234000D3F80CC08F430CFB01F13943516090FA74
:10235000A0FC1969D76800F03DF84FEA4C0E01FA6D
:102360000EF13943D1605968022918D15969B0F585
:10237000807FB6D290FAA0FCBCFA8CFC176A4FEAB8
:102380008C0C04FA0CFC27EA0C0790FAA0FCBCFAAF
:102390008CFC4FEA8C0E01FA0EF13943116290FA6F
:1023A000A0FC5968BCFA8CFC90FAA0F017684FEAC0
:1023B0004C0CB0FA80F005FA0CFC400027EA0C0740
:1023C000814039431160761C186830FA06F1A0D1BB
:1023D0000020F0BDBCFA8CFC4FEA4C0C05FA0CFC5A
:1023E00027EA0C0790FAA0FCBCFA8CFC70470000AE
:1023F00070B504002BD004F15C05287820B90021C9
:102400006970204600F07AFA00F0E8F80646206885
:1024100081690A0705D500F0A9FA801B0B28F6D3BD
:102420000FE0816941F00101816100F09FFA0646E9
:1024300020688169CA070CD400F098FA801B0B2829
:10244000F6D3686840F0010068600321297001201C
:1024500070BD816941F0020181612068564988425E
:1024600002D1606855490860207C01282068816994
:102470000CBF21F0400141F040018161607C0128E6
:10248000206881690CBF41F4804121F48041816161
:10249000A07C0128206881690CBF21F4805141F49F
:1024A0008051816121688A69A06822F440720243E8
:1024B0008A612068816921F0A40181612068016935
:1024C00021F010010161E068012804D120688169D0
:1024D00041F0040113E0B8B121680228886910D0E6
:1024E00040F0800088612068016941F010010161BD
:1024F000E068032808D12068816941F020018161EA
:1025000002E040F020008861E169A0696269491E2B
:10251000401E090241EA4061206A401E01432068D2
:10252000521E41EA0241C161A168B1F5407F0FD15D
:10253000A06AE16A401E491E40EA0120216B226820
:10254000491E40EA0110616A491E40EA0140D0601C
:102550002168D1F8C020E06B0243C1F8C0201848C0
:1025600020642168D1F88020636B22F4F81242EADB
:102570000342C1F88020134961642168D1F88020AA
:10258000A36B22F0706242EA0362C1F880200E4918
:102590000E4AA164E2640E490E4A2165626500217B
:1025A0000D4A40F8041B9042FBD3A16569600120ED
:1025B0002870002070BD00000064004000650040ED
:1025C00000A4004070A40040B0A4004088A50040D2
:1025D00060A6004078A6004050A7004020688169AE
:1025E00021F01001816100F0C1B910B50446104618
:1025F0000A460146204600F0BFF9204610BD000003
:1026000070B504460E4620680125C1075AD42268D9
:102610003148B168024030690A4371690243F06988
:102620000A43024322606168F06821F4405101438B
:102630006160A168B06921F440710143A160224941
:102640008C4208BF032008D020498C4208BF0C20D0
:1026500003D01F48844203D1302000F0D3F905E0B5
:102660001C48844228D1C02000F021FA00281CBF59
:102670007168002920D0326800250C2A1CD2174B23
:10268000D2B253F82220F369B0FBF2F04A08B3F556
:10269000004F0CD102EB4002B2FBF1F080B24FF6DA
:1026A000F0710140C0F342000143E16004E0101802
:1026B000B0FBF1F080B2E060E16A3088090940EADD
:1026C0000111E162284670BD00380140004400401D
:1026D00000480040004C0040F369FFEF0C2F000859
:1026E00038B5044600F042F914F1010F054602D056
:1026F00004498868041900F039F9401BA042FAD354
:1027000031BD00BF000000200EB4C0B5024603A8D2
:1027100000210190009101AB0121044878440C3064
:10272000FDF75AFD06BC5DF810FB00BF6309000011
:1027300010B50A29044614D194F84000D8B194F891
:1027400040000021215494F840100846402804DA43
:10275000C1F14001204400F031FA002284F8402009
:1027600010BD0D2907D0080005D094F84000421C88
:1027700084F84020215410BD70B50446DFF8245081
:1027800009A603E0102028608021296031462046F8
:1027900000F017FA0028F5D0102028618021296167
:1027A00070BD0000180400482B514254494E443A71
:1027B0002022636F6E6E220001490860704700009E
:1027C0001400002070B50E4E0446B0680025A0B17C
:1027D0004FF47A710B4AB1FBF0F11068B0FBF1F0E5
:1027E00000F04AF848B9102C07D2002221464FF0D9
:1027F000FF3000F023F8746000E00125284670BD2A
:1028000000000020140000200901020002D4244826
:1028100081547047234B02F00F021A4402F8041C43
:102820007047214B19684FF6FF020002114000F477
:10283000E06008431D4908431860704770B51A4BA3
:102840001C68C4F302230124C3F10705052D2EBF24
:102850000F2504FA05F56D1E1E1D072E34BF00233B
:10286000DB1E2940994004FA03F3BDE870405B1E6B
:102870001A401143C8E7000010B5401EB0F1807F38
:1028800001D3012010BD0A4C60600F214FF0FF30D2
:10289000FFF7BAFF0021A16007202060002010BDD3
:1028A00000E400E018ED00E00CED00E00000FA05A7
:1028B00010E000E0E0B5082200216846FFF795FE31
:1028C0002648816841F001018160816801F00101C1
:1028D00002910299026842F0805202600022006870
:1028E00000F080500290684602990092019200F038
:1028F0007FF900F0B3F900F0BBF907BD10B586B061
:1029000004461422002101A8FFF76FFE2168144835
:10291000814220D11348C16841F00071C160C16893
:1029200001F0007100910099026842F00202026019
:102930004FF44071006800F00200009002220098FD
:102940000948019102920021039104910921059106
:1029500001A900F097F906B010BD00005810024020
:10296000006400404C100240000400480148006828
:10297000704700BF0000002062F30F2262F31F4285
:10298000401810F0030308D0C91A1FD3DB0748BF53
:1029900000F8012D28BF20F8022D130030B4144692
:1029A0001546103928BF20E93C00FAD8490728BF4E
:1029B00020E90C0048BF40F8042D890028BF20F80A
:1029C000022D48BF00F8012D30BC7047C91818BF50
:1029D00000F8012DCB0728BF00F8012D704700003B
:1029E000DFF8A001006800F003007047DFF89401F1
:1029F0000168C1F306207047DFF88801006800F025
:102A0000F000704770B5014600200329DFF87C21F3
:102A1000DFF87441DFF868514FF4004313D129689F
:102A2000DFF86C6101F0030141F44031891B29D0CA
:102A3000491E2AD0491E2DD000F069F800F089F80F
:102A4000BDE8704095E00C290CD12968DFF844619D
:102A500001F00C0141F44021891B13D0091F14D04F
:102A6000091F0DE0302921D12968DFF82C6101F020
:102A7000300141F44011891B04D0103905D01039C0
:102A800008D00CE0BDE8704041E0216849050DD553
:102A9000104670BDA968890708D5184670BD00F0BA
:102AA00036F800F056F8BDE8704058E070BD80B5CB
:102AB0000021C02825D1DFF8C800DFF8E030026827
:102AC00002F0C00242F44002D21A04D0403A05D0CB
:102AD000403A09D00EE000F01AF811E000F013F8C7
:102AE0000FD5DFF8A8100CE08068800709D54FF4F7
:102AF000004106E000F00BF800F02BF800F02FF892
:102B00000146084602BD204800684205704770B57E
:102B1000244C1E4D2068224E00F00C00082802D0E4
:102B20000C2802D013E0354611E0FFF759FF0328C7
:102B300008BF3546FFF75AFF4543FFF75DFF616861
:102B40000009C1F3416100F033F8B0FBF1F528460C
:102B500070BD1449144A0968C1F3031104E0114916
:102B6000124A0968C1F30221515C01F01F01C840FB
:102B700070470C490D4A0968C1F3C221F4E700000F
:102B8000881002400C100240001002400024F400A3
:102B90000100030004000C00100030004000C000E1
:102BA00000127A0008100240DC2F0008C030000834
:102BB000401C491CB5FBF0F0490070470022FFF7AC
:102BC000DFBE70B50D462C7834B970BD11F8013FE9
:102BD0001678B34206D0401C2146FEF7EFFA28B122
:102BE00001462A4612F8013F002BEFD170BD0000CC
:102BF0001D4A1368016823F00E030B431B49136041
:102C00004A6822F480324A600B6823F480330B60F8
:102C1000CA6822F48032CA608A6822F480328A60EC
:102C20004268D30303D50A6842F480320A604268DE
:102C3000930303D54A6842F480324A600279D3078D
:102C400003D58A6842F480328A600079820703D50E
:102C5000C86840F48030C8600020704702480168AE
:102C600041F0010101607047047000400004014020
:102C70000348016841F48041016070470000000092
:102C8000087000402DE9F84F0027644A644B4FF06C
:102C90000F0805460E4634E0624CA54214BF0624D8
:102CA00005248C40604944EA0E0441F82C40C1439D
:102CB000146801EA040C7468E40348BF40EA0C0C91
:102CC000C2F800C0546801EA040C7468A40348BF49
:102CD00040EA0C0CC2F804C0946801EA040C746861
:102CE000E40248BF40EA0C0CC2F808C0D46801EA0C
:102CF000040C7168890248BF40EA0C0CC2F80CC091
:102D00007F1C316831FA07F000F085800124BC4057
:102D100014EA0100F4D04FEA470C032101FA0CF148
:102D20006FEA010E7168012918BF022903D0112929
:102D300018BF122912D1A968D6F80C900EEA010129
:102D400009FA0CF949EA0101A960696821EA040459
:102D50007168C1F30011B9400C436C60E968B46854
:102D60000EEA010104FA0CF42143E960B900746829
:102D7000022C18BF122C12D1FC0805EB840401F0C0
:102D80001C09D4F820A008FA09FB2AEA0B0AD6F895
:102D900010B00BFA09F949EA0A09C4F820902C6826
:102DA0000EEA040E347904F0030404FA0CF444EA45
:102DB0000E042C607468E400A2D51C6844F0010481
:102DC0001C604FEA970C1C6804F00104009401F0A9
:102DD0000C01009C144C54F82C4008FA01FE24EA23
:102DE0000E0EB5F1904F08BF002413D00F4CA54232
:102DF00008BF01240ED00E4CA54208BF022409D002
:102E00000C4CA54208BF032404D00B4CA5427FF410
:102E100043AF042445E7BDE8F18F00000004014002
:102E200060100240001400480800014000040048FF
:102E300000080048000C00480010004831303130D4
:102E4000303031303130303130313030313031307C
:102E5000303031303130303130313030313031306C
:102E6000303031303130303130313030313031305C
:102E70003030313031303031303130300D0A0000F7
:102E80003130313131313130313030313031313137
:102E90003130313131313130313030313031313127
:102EA0003130313131313130313030313031313117
:102EB0003130313131313130313030313031313107
:102EC0000D0A0000FEE7FEE7FEE7FEE7FEE77047BB
:102ED0007047704700F012B80648C169890607D5E7
:102EE0000168890604D5416A0348C9B2FFF720BCCE
:102EF00070470000004800407C00002002490A683A
:102F0000886882180A6070470000002001000000F5
:102F1000020000000400000006000000080000009D
:102F20000A0000000C00000010000000200000005B
:102F300040000000800000000001000010B50749BB
:102F400079441831064C7C44163404E00A68081DA4
:102F5000114488470146A142F8D110BD4C00000041
:102F60006C0000004EF68851CEF20001086840F473
:102F700070000860BFF34F8FBFF36F8F4FF000708A
:102F8000E1EE100A704718B583B0030014000093F7
:102F90000191029469460520ABBE01221900201A56
:102FA000AFF3008004B010BDDBE1FFFFB000000014
:102FB00018000020000000001BE2FFFF18000000C6
:102FC0002402000000000020000000000248016808
:102FD00041F470010160704788ED00E000000000DE
:102FE00000000000010203040607080980B58DF8FF
:102FF000000001226946012000F008F8012802D1F2
:103000009DF8000002BD4FF0FF3002BD80B50028E2
:1030100002D400F003F802BD002002BD80B50029F3
:1030200001D1002002BD012801D0022802D100F008
:1030300004F802BDFFF7A7FF02BD30B583B00C0056
:1030400015000120FEF73AFF0090019402956946B1
:103050000520ABBE281A03B030BD000000F00DF80B
:10306000002801D0FFF76AFFAFF300800020AFF324
:103070000080FEF775FF00F002F80120704700F0B5
:1030800001B8000007463846FEF7F8FEFBE738B502
:1030900004460D462846FFF7A9FFA84218BF0024A2
:1030A000204632BD0148804701480047CD2F000827
:1030B000B5300008AFF30080FFF754FFFFF7CEFFF5
:1030C0000000000001020304686A6C747A4C00007E
:1030D000FFF7FEBFFFF7FEBFFFF7FEBFFFF7FEBF24
:1030E000FFF7FEBFFFF7FEBFFFF7FEBFFFF7FEBF14
:1030F000FFF7FEBFFFF7FEBFFFF7FEBFFFF7FEBF04
:10310000FFF7FEBFFFF7FEBFFFF7FEBFFFF7FEBFF3
:10311000FFF7FEBFFFF7FEBFFFF7FEBFFFF7FEBFE3
:10312000FFF7FEBFFFF7FEBFFFF7FEBFFFF7FEBFD3
:10313000FFF7FEBFFFF7FEBFFFF7FEBFFFF7FEBFC3
:10314000FFF7FEBFFFF7FEBFFFF7FEBFFFF7FEBFB3
:10315000FFF7FEBFFFF7FEBFFFF7FEBFFFF7FEBFA3
:10316000FFF7FEBFFFF7FEBFFFF7FEBFFFF7FEBF93
:10317000FFF7FEBFFFF7FEBFFFF7FEBFFFF7FEBF83
:10318000FFF7FEBFFFF7FEBFFFF7FEBFFFF7FEBF73
:10319000FFF7FEBFFFF7FEBFFFF7FEBFFFF7FEBF63
:1031A000FFF7FEBFFFF7FEBFFFF7FEBFFFF7FEBF53
:1031B000FFF7FEBFFFF7FEBFFFF7FEBFFFF7FEBF43
:1031C000FFF7FEBFFFF7FEBFFFF7FEBFFFF7FEBF33
:1031D000FFF7FEBFFFF7FEBFFFF7FEBFFFF7FEBF23
:1031E000FFF7FEBF0000000010000000010000001B
:0C31F000FFFFFFFFFFFFFFFF0024F400C3
:04000005080030B50A
:00000001FF
